:020000020000FC
:0200000045C0F9
:0400300033C118952B
:040038002FC1189527
:10008C000FEF0DBF00E10EBF22240FEF07BB00E006
:10009C0008BB00E001BB0FEF02BBF89400E00FBD02
:1000AC0004E00EBD00E007BF0FEF06BF20E010E03C
:1000BC002DBD1CBD28D189D1AAD0D8D000B30E3FFC
:1000CC00E1F741E080E081D1C5D0B8D0B5D0CED039
:1000DC0000B30F3751F48A958F3F19F0BBD0ACD0D9
:1000EC00F6CF89E1B7D0A8D0F2CF0F3B51F483956E
:1000FC008A3119F0AFD0A0D0EACF80E0ABD09CD041
:10010C00E6CF0E3F39F44395413149F080E0A2D05F
:10011C0093D0DDCF0F3ED9F643950C9499000C94F7
:10012C0099000C94460000E108BB50E0F1E0E0E1DE
:10013C00E50F53955417A9F301910154F2E0EEED3C
:10014C00E00FE00F10F00C94AC00F395159128E043
:10015C008894111F58F02A95D9F728E015918894A6
:10016C00111F60F02A95D9F70C94460017950BD007
:10017C0028E0159108D019D00C949C00179503D049
:10018C0014D00C949C008894111F48F000E108BB1B
:10019C0012D02A95C1F7089515910C94CF0000EF59
:1001AC0008BB09D02A9579F7089500E108BB03D064
:1001BC0002D001D0089508953F93FF93EF930F93CE
:1001CC002F931F9331E0F89431E000E00FBD04E071
:1001DC000EBD0FEF06BFF2E0EEE90491013089F09D
:1001EC0027EE15E900E02DBD1CBD04E007BF789497
:1001FC003030F1F71F912F910F91EF91FF913F91BB
:10020C0008952BE01BED0C94F8000C944600DDD007
:10021C00F2E0E0EAC0E0D1E078E0059109937A954C
:10022C00E1F7F2E0E8EAC0E1D1E070E10591099371
:10023C007A95E1F7A7D00895A5D008957F93F2E0C1
:10024C00E8EBC0E0D1E07BE0059109937A95E1F70A
:10025C007F910895D1E0C0E1042F0A9521F471E457
:10026C00780F7883089579910C9433010F931F9331
:10027C002F9321E018EC09E40A95F1F71A95D9F7B8
:10028C002A95C1F72F911F910F91089530E0F894A2
:10029C000895010057656C636F6D6521506C656145
:1002AC00736520707265737320504430456E7465AD
:1002BC007220776F72643A00414243444546474886
:1002CC00494A4B4C4D4E4F5051525354555657581A
:1002DC00595A001701D5075D00750001015D01DD5C
:1002EC0000550005177701D701750077001D0777BA
:1002FC0005DD1DD7005D001500070057015701777C
:10030C0007571D7707750F930FB70F931F9300E0D7
:10031C0008BB0FEF07BB00E002BB00E001BB00E035
:10032C000093620008E00093610000E50DB901E064
:10033C000EB900E805BF02E400936D0000E80093DD
:10034C006C0000E00BB908E10AB906E000939500D7
:10035C0000E00093900007E609B906E01AEFBFD061
:10036C000A95E1F708E397D008E095D001E093D027
:10037C0006E091D00CE08FD028D01F910F910FBFC9
:10038C000F91089502D011D008950F93EF93FF931E
:10039C002F933F93E0E0F1E030E86BD076D03F91C3
:1003AC002F91FF91EF910F9108950F93EF93FF937E
:1003BC002F933F93E0E1F1E030EC5BD066D03F91BE
:1003CC002F91FF91EF910F91089502D011D00895C4
:1003DC000F933F932F93EF93FF9330E84AD0E0E0D5
:1003EC00F1E04CD0FF91EF912F913F910F91089537
:1003FC000F933F932F93EF93FF9330EC3AD0E0E1C0
:10040C00F1E03CD0FF91EF912F913F910F91089526
:10041C000F933F932F93283250F4313011F430E87E
:10042C0003C0323021F430EC320F23D042D02F9164
:10043C003F910F9108950F936F935F93BF93AF9379
:10044C00043618F023E0139607C00A3018F022E0A7
:10045C00129602C0119621E04AD000E3060F0E93CB
:10046C00052F0030C9F7AF91BF915F916F910F913C
:10047C0008950F93032F0FD00F91089500E220E100
:10048C00019317D02A95E1F7089520E1019111D03D
:10049C002A95E1F708954F931F9340E013D00F93E3
:1004AC0002E01DEC1CD00A95E1F70F911F914F91C2
:1004BC0008954F931F9341E005D010E110D01F9188
:1004CC004F9108954FB912E00AD00FB912E007D03E
:1004DC0018E01093620010E01093620008950F93DF
:1004EC0009E40A95F1F71A95D9F70F9108950F922F
:1004FC00502F56955695500F5695500F569556951C
:10050C005695500F5695500F569556955695500F2B
:10051C005695500F5695569556955695652F660FD0
:10052C00660F650F660F062E602F60196A3018F083
:0A053C0053956A50FBCF0F9008950D
:00000001FF
